{
  "contractName": "ContractA",
  "abi": [
    {
      "inputs": [],
      "stateMutability": "nonpayable",
      "type": "constructor"
    },
    {
      "anonymous": false,
      "inputs": [
        {
          "indexed": false,
          "internalType": "uint256",
          "name": "testVar",
          "type": "uint256"
        }
      ],
      "name": "TestEvent",
      "type": "event"
    },
    {
      "inputs": [],
      "name": "incrementTestVar",
      "outputs": [],
      "stateMutability": "nonpayable",
      "type": "function"
    }
  ],
  "bytecode": "0x608060405234801561001057600080fd5b50336000806101000a81548173ffffffffffffffffffffffffffffffffffffffff021916908373ffffffffffffffffffffffffffffffffffffffff160217905550610178806100606000396000f3fe608060405234801561001057600080fd5b506004361061002b5760003560e01c8063f12d9c0914610030575b600080fd5b61003861003a565b005b6001805461004891906100b3565b6001819055507f1440c4dd67b4344ea1905ec0318995133b550f168b4ee959a0da6b503d7d241460015460405161007f9190610098565b60405180910390a1565b61009281610109565b82525050565b60006020820190506100ad6000830184610089565b92915050565b60006100be82610109565b91506100c983610109565b9250827fffffffffffffffffffffffffffffffffffffffffffffffffffffffffffffffff038211156100fe576100fd610113565b5b828201905092915050565b6000819050919050565b7f4e487b7100000000000000000000000000000000000000000000000000000000600052601160045260246000fdfea264697066735822122026d2566c1febc0e1fc5820c9d5d6305fec83d7e9ff00fef5b82e31a631a1a85d64736f6c63430008040033",
  "immutableReferences": {},
  "source": "pragma solidity ^0.8.3;\r\npragma experimental ABIEncoderV2;\r\n\r\n\r\ncontract ContractA {\r\n    address owner;\r\n\r\n     uint256 testVar;\r\n\r\n     event TestEvent(uint256 testVar);\r\n\r\n    constructor() {\r\n        owner = msg.sender;\r\n    }\r\n\r\n    function incrementTestVar() public {\r\n        testVar = testVar + 1;\r\n\r\n        emit TestEvent(testVar);\r\n    }\r\n\r\n}",
  "sourcePath": "C:/Users/aoana/Desktop/Html/Licenta/contracts/ContractA.sol",
  "compiler": {
    "name": "solc",
    "version": "0.8.4+commit.c7e474f2.Emscripten.clang"
  },
  "schemaVersion": "3.3.4",
  "updatedAt": "2021-05-13T10:48:16.545Z",
  "devdoc": {
    "kind": "dev",
    "methods": {},
    "version": 1
  },
  "userdoc": {
    "kind": "user",
    "methods": {},
    "version": 1
  }
}