{
  "contractName": "DutchAuction",
  "abi": [
    {
      "inputs": [
        {
          "internalType": "address",
          "name": "_nft",
          "type": "address"
        }
      ],
      "stateMutability": "nonpayable",
      "type": "constructor"
    },
    {
      "anonymous": false,
      "inputs": [
        {
          "indexed": false,
          "internalType": "uint256",
          "name": "auctionID",
          "type": "uint256"
        },
        {
          "indexed": false,
          "internalType": "uint256",
          "name": "tokenID",
          "type": "uint256"
        },
        {
          "indexed": false,
          "internalType": "uint256",
          "name": "durationAuction",
          "type": "uint256"
        },
        {
          "indexed": false,
          "internalType": "uint256",
          "name": "startPriceAuction",
          "type": "uint256"
        },
        {
          "indexed": false,
          "internalType": "uint256",
          "name": "endPriceAuction",
          "type": "uint256"
        }
      ],
      "name": "AuctionStarted",
      "type": "event"
    },
    {
      "anonymous": false,
      "inputs": [
        {
          "indexed": false,
          "internalType": "uint256",
          "name": "tokenID",
          "type": "uint256"
        },
        {
          "indexed": false,
          "internalType": "uint256",
          "name": "auctionID",
          "type": "uint256"
        },
        {
          "indexed": false,
          "internalType": "uint256",
          "name": "totalPriceAuction",
          "type": "uint256"
        },
        {
          "indexed": false,
          "internalType": "address",
          "name": "winnerAuction",
          "type": "address"
        }
      ],
      "name": "NFTTransferCompleted",
      "type": "event"
    },
    {
      "inputs": [],
      "name": "NftContract",
      "outputs": [
        {
          "internalType": "contract ERC721",
          "name": "",
          "type": "address"
        }
      ],
      "stateMutability": "view",
      "type": "function"
    },
    {
      "inputs": [],
      "name": "auctionID",
      "outputs": [
        {
          "internalType": "uint256",
          "name": "",
          "type": "uint256"
        }
      ],
      "stateMutability": "view",
      "type": "function"
    },
    {
      "inputs": [
        {
          "internalType": "uint256",
          "name": "_id",
          "type": "uint256"
        }
      ],
      "name": "getAuctionByID",
      "outputs": [
        {
          "internalType": "uint256",
          "name": "id",
          "type": "uint256"
        },
        {
          "internalType": "uint256",
          "name": "tokenID",
          "type": "uint256"
        },
        {
          "internalType": "uint256",
          "name": "startingTimeAuction",
          "type": "uint256"
        },
        {
          "internalType": "uint256",
          "name": "durationAuction",
          "type": "uint256"
        },
        {
          "internalType": "uint256",
          "name": "startPriceAuction",
          "type": "uint256"
        },
        {
          "internalType": "uint256",
          "name": "endPriceAuction",
          "type": "uint256"
        },
        {
          "internalType": "address",
          "name": "nftSeller",
          "type": "address"
        },
        {
          "internalType": "bool",
          "name": "finishedAuction",
          "type": "bool"
        }
      ],
      "stateMutability": "view",
      "type": "function"
    },
    {
      "inputs": [
        {
          "internalType": "uint256",
          "name": "_token",
          "type": "uint256"
        }
      ],
      "name": "getAuctionByTokenID",
      "outputs": [
        {
          "internalType": "uint256",
          "name": "id",
          "type": "uint256"
        },
        {
          "internalType": "uint256",
          "name": "tokenID",
          "type": "uint256"
        },
        {
          "internalType": "uint256",
          "name": "startingTimeAuction",
          "type": "uint256"
        },
        {
          "internalType": "uint256",
          "name": "durationAuction",
          "type": "uint256"
        },
        {
          "internalType": "uint256",
          "name": "startPriceAuction",
          "type": "uint256"
        },
        {
          "internalType": "uint256",
          "name": "endPriceAuction",
          "type": "uint256"
        },
        {
          "internalType": "address",
          "name": "nftSeller",
          "type": "address"
        },
        {
          "internalType": "bool",
          "name": "finishedAuction",
          "type": "bool"
        }
      ],
      "stateMutability": "view",
      "type": "function"
    },
    {
      "inputs": [
        {
          "internalType": "uint256",
          "name": "_tokenID",
          "type": "uint256"
        },
        {
          "internalType": "uint256",
          "name": "_durationAuction",
          "type": "uint256"
        },
        {
          "internalType": "uint256",
          "name": "_startPriceAuction",
          "type": "uint256"
        },
        {
          "internalType": "uint256",
          "name": "_endPriceAuction",
          "type": "uint256"
        }
      ],
      "name": "startAuction",
      "outputs": [],
      "stateMutability": "nonpayable",
      "type": "function"
    },
    {
      "inputs": [
        {
          "internalType": "uint256",
          "name": "_tokenID",
          "type": "uint256"
        }
      ],
      "name": "buy",
      "outputs": [],
      "stateMutability": "payable",
      "type": "function"
    },
    {
      "inputs": [
        {
          "internalType": "uint256",
          "name": "_id",
          "type": "uint256"
        }
      ],
      "name": "getPriceByAuctionId",
      "outputs": [
        {
          "internalType": "uint256",
          "name": "",
          "type": "uint256"
        }
      ],
      "stateMutability": "view",
      "type": "function"
    },
    {
      "inputs": [
        {
          "internalType": "uint256",
          "name": "_tokenID",
          "type": "uint256"
        }
      ],
      "name": "getPriceByTokenId",
      "outputs": [
        {
          "internalType": "uint256",
          "name": "",
          "type": "uint256"
        }
      ],
      "stateMutability": "view",
      "type": "function"
    }
  ],
  "bytecode": "0x60806040523480156200001157600080fd5b506040516200125538038062001255833981810160405281019062000037919062000095565b806000806101000a81548173ffffffffffffffffffffffffffffffffffffffff021916908373ffffffffffffffffffffffffffffffffffffffff160217905550506200011a565b6000815190506200008f8162000100565b92915050565b600060208284031215620000ae57620000ad620000fb565b5b6000620000be848285016200007e565b91505092915050565b6000620000d482620000db565b9050919050565b600073ffffffffffffffffffffffffffffffffffffffff82169050919050565b600080fd5b6200010b81620000c7565b81146200011757600080fd5b50565b61112b806200012a6000396000f3fe60806040526004361061007b5760003560e01c8063b267661e1161004e578063b267661e14610155578063c5830fc414610192578063d96a094a146101d6578063f55a40cc146101f25761007b565b80632d07091f146100805780636cb893b0146100ab5780638d2c4488146100ef57806399899d1214610118575b600080fd5b34801561008c57600080fd5b5061009561021d565b6040516100a29190610b97565b60405180910390f35b3480156100b757600080fd5b506100d260048036038101906100cd9190610a75565b610223565b6040516100e6989796959493929190610c4a565b60405180910390f35b3480156100fb57600080fd5b5061011660048036038101906101119190610aa2565b6102c8565b005b34801561012457600080fd5b5061013f600480360381019061013a9190610a75565b610675565b60405161014c9190610b97565b60405180910390f35b34801561016157600080fd5b5061017c60048036038101906101779190610a75565b61069e565b6040516101899190610b97565b60405180910390f35b34801561019e57600080fd5b506101b960048036038101906101b49190610a75565b6106c7565b6040516101cd989796959493929190610c4a565b60405180910390f35b6101f060048036038101906101eb9190610a75565b61076c565b005b3480156101fe57600080fd5b50610207610964565b6040516102149190610b7c565b60405180910390f35b60015481565b6000806000806000806000806000600360008b81526020019081526020016000209050600081600201541161025757600080fd5b8060000154816001015482600201548360030154846004015485600501548660060160009054906101000a900473ffffffffffffffffffffffffffffffffffffffff168760060160149054906101000a900460ff169850985098509850985098509850985050919395975091939597565b7fffffffffffffffffffffffffffffffffffffffffffffffffffffffffffffffff82106102f457600080fd5b7fffffffffffffffffffffffffffffffffffffffffffffffffffffffffffffffff811061032057600080fd5b7fffffffffffffffffffffffffffffffffffffffffffffffffffffffffffffffff83111561034d57600080fd5b603c831161035a57600080fd5b3373ffffffffffffffffffffffffffffffffffffffff1660008054906101000a900473ffffffffffffffffffffffffffffffffffffffff1673ffffffffffffffffffffffffffffffffffffffff16636352211e866040518263ffffffff1660e01b81526004016103ca9190610b97565b60206040518083038186803b1580156103e257600080fd5b505afa1580156103f6573d6000803e3d6000fd5b505050506040513d601f19601f8201168201806040525081019061041a9190610a48565b73ffffffffffffffffffffffffffffffffffffffff161461043a57600080fd5b600060405180610100016040528060015481526020018681526020014281526020018581526020018481526020018381526020013373ffffffffffffffffffffffffffffffffffffffff1681526020016000151581525090508060026000878152602001908152602001600020600082015181600001556020820151816001015560408201518160020155606082015181600301556080820151816004015560a0820151816005015560c08201518160060160006101000a81548173ffffffffffffffffffffffffffffffffffffffff021916908373ffffffffffffffffffffffffffffffffffffffff16021790555060e08201518160060160146101000a81548160ff02191690831515021790555090505080600360006001548152602001908152602001600020600082015181600001556020820151816001015560408201518160020155606082015181600301556080820151816004015560a0820151816005015560c08201518160060160006101000a81548173ffffffffffffffffffffffffffffffffffffffff021916908373ffffffffffffffffffffffffffffffffffffffff16021790555060e08201518160060160146101000a81548160ff0219169083151502179055509050507f96dc03847ae934117a0c1b4ead42f9ae23548b3b72d07cc48668ee28d057974960015486836060015184608001518560a0015160405161064e959493929190610bf7565b60405180910390a1600160008154809291906106699061101b565b91905055505050505050565b60008060026000848152602001908152602001600020905061069681610988565b915050919050565b6000806003600084815260200190815260200160002090506106bf81610988565b915050919050565b6000806000806000806000806000600260008b8152602001908152602001600020905060008160020154116106fb57600080fd5b8060000154816001015482600201548360030154846004015485600501548660060160009054906101000a900473ffffffffffffffffffffffffffffffffffffffff168760060160149054906101000a900460ff169850985098509850985098509850985050919395975091939597565b60006002600083815260200190815260200160002090506000600360006001548152602001908152602001600020905060006107a783610988565b905060008360020154116107ba57600080fd5b803410156107c757600080fd5b60008360060160009054906101000a900473ffffffffffffffffffffffffffffffffffffffff169050600081905060008560000154905060018660060160146101000a81548160ff02191690831515021790555060018560060160146101000a81548160ff021916908315150217905550600084111561088f5760008490508273ffffffffffffffffffffffffffffffffffffffff166108fc829081150290604051600060405180830381858888f1935050505015801561088c573d6000803e3d6000fd5b50505b60008054906101000a900473ffffffffffffffffffffffffffffffffffffffff1673ffffffffffffffffffffffffffffffffffffffff166323b872dd84338a6040518463ffffffff1660e01b81526004016108ec93929190610b45565b600060405180830381600087803b15801561090657600080fd5b505af115801561091a573d6000803e3d6000fd5b505050507fea8328fbed21fe5060994ea255f10b1f46f604da3df31078da3ddcab93eb3e7a878286336040516109539493929190610bb2565b60405180910390a150505050505050565b60008054906101000a900473ffffffffffffffffffffffffffffffffffffffff1681565b60008082600201541161099a57600080fd5b60008260020154426109ac9190610f71565b9050826003015481106109c6578260050154915050610a19565b6000836004015484600501546109dc9190610edd565b90506000846003015483836109f19190610dc6565b6109fb9190610d5c565b90506000818660040154610a0f9190610cc8565b9050809450505050505b919050565b600081519050610a2d816110c7565b92915050565b600081359050610a42816110de565b92915050565b600060208284031215610a5e57610a5d6110c2565b5b6000610a6c84828501610a1e565b91505092915050565b600060208284031215610a8b57610a8a6110c2565b5b6000610a9984828501610a33565b91505092915050565b60008060008060808587031215610abc57610abb6110c2565b5b6000610aca87828801610a33565b9450506020610adb87828801610a33565b9350506040610aec87828801610a33565b9250506060610afd87828801610a33565b91505092959194509250565b610b1281610fa5565b82525050565b610b2181610fb7565b82525050565b610b3081610ff7565b82525050565b610b3f81610fed565b82525050565b6000606082019050610b5a6000830186610b09565b610b676020830185610b09565b610b746040830184610b36565b949350505050565b6000602082019050610b916000830184610b27565b92915050565b6000602082019050610bac6000830184610b36565b92915050565b6000608082019050610bc76000830187610b36565b610bd46020830186610b36565b610be16040830185610b36565b610bee6060830184610b09565b95945050505050565b600060a082019050610c0c6000830188610b36565b610c196020830187610b36565b610c266040830186610b36565b610c336060830185610b36565b610c406080830184610b36565b9695505050505050565b600061010082019050610c60600083018b610b36565b610c6d602083018a610b36565b610c7a6040830189610b36565b610c876060830188610b36565b610c946080830187610b36565b610ca160a0830186610b36565b610cae60c0830185610b09565b610cbb60e0830184610b18565b9998505050505050505050565b6000610cd382610fc3565b9150610cde83610fc3565b9250817f7fffffffffffffffffffffffffffffffffffffffffffffffffffffffffffffff03831360008312151615610d1957610d18611064565b5b817f8000000000000000000000000000000000000000000000000000000000000000038312600083121615610d5157610d50611064565b5b828201905092915050565b6000610d6782610fc3565b9150610d7283610fc3565b925082610d8257610d81611093565b5b600160000383147f800000000000000000000000000000000000000000000000000000000000000083141615610dbb57610dba611064565b5b828205905092915050565b6000610dd182610fc3565b9150610ddc83610fc3565b9250827f7fffffffffffffffffffffffffffffffffffffffffffffffffffffffffffffff0482116000841360008413161615610e1b57610e1a611064565b5b817f80000000000000000000000000000000000000000000000000000000000000000583126000841260008413161615610e5857610e57611064565b5b827f80000000000000000000000000000000000000000000000000000000000000000582126000841360008412161615610e9557610e94611064565b5b827f7fffffffffffffffffffffffffffffffffffffffffffffffffffffffffffffff0582126000841260008412161615610ed257610ed1611064565b5b828202905092915050565b6000610ee882610fc3565b9150610ef383610fc3565b9250827f800000000000000000000000000000000000000000000000000000000000000001821260008412151615610f2e57610f2d611064565b5b827f7fffffffffffffffffffffffffffffffffffffffffffffffffffffffffffffff018213600084121615610f6657610f65611064565b5b828203905092915050565b6000610f7c82610fed565b9150610f8783610fed565b925082821015610f9a57610f99611064565b5b828203905092915050565b6000610fb082610fcd565b9050919050565b60008115159050919050565b6000819050919050565b600073ffffffffffffffffffffffffffffffffffffffff82169050919050565b6000819050919050565b600061100282611009565b9050919050565b600061101482610fcd565b9050919050565b600061102682610fed565b91507fffffffffffffffffffffffffffffffffffffffffffffffffffffffffffffffff82141561105957611058611064565b5b600182019050919050565b7f4e487b7100000000000000000000000000000000000000000000000000000000600052601160045260246000fd5b7f4e487b7100000000000000000000000000000000000000000000000000000000600052601260045260246000fd5b600080fd5b6110d081610fa5565b81146110db57600080fd5b50565b6110e781610fed565b81146110f257600080fd5b5056fea2646970667358221220e1ad95975ca44c28142e381ec5ff39ed12367d0937a1eab22ec0ff44f1d1334064736f6c63430008060033",
  "immutableReferences": {},
  "source": "pragma solidity 0.8.6;\r\n\r\nimport \"./tokens/nf-token.sol\";\r\n\r\ncontract DutchAuction {\r\n\r\n  ERC721 public NftContract;\r\n  uint256 public auctionID; \r\n\r\n    //structura unei licitatii\r\n  struct DutchAuction {\r\n        uint256 id;\r\n        uint256 tokenID;\r\n        uint256 startingTimeAuction;\r\n        uint256 durationAuction;  \r\n        uint256 startPriceAuction; \r\n        uint256 endPriceAuction; \r\n        address nftSeller;\r\n        bool finishedAuction;\r\n  }\r\n\r\n \r\n  mapping ( uint256 => DutchAuction ) internal tokenIDAuction;\r\n  mapping ( uint256 => DutchAuction ) internal auctionIDAuction;\r\n  \r\n    //evenimentele de creare cu succes si de transfer cu succes al NFT-ului\r\n  event AuctionStarted(uint256 auctionID, uint256 tokenID, uint256 durationAuction, uint256 startPriceAuction, uint256 endPriceAuction);\r\n  event NFTTransferCompleted(uint256 tokenID, uint256 auctionID, uint256 totalPriceAuction, address winnerAuction);  \r\n\r\n    //constructor\r\n  constructor(address _nft) {\r\n        NftContract = ERC721(_nft);\r\n    }\r\n\r\n    //se ia o licitatie dupa id\r\n  function getAuctionByID(uint256 _id) public view returns (uint256 id,uint256 tokenID,uint256 startingTimeAuction,\r\n                uint256 durationAuction,  uint256 startPriceAuction, uint256 endPriceAuction, address nftSeller,bool finishedAuction) {\r\n      \r\n      DutchAuction storage dutchAuction = auctionIDAuction[_id];\r\n      require(dutchAuction.startingTimeAuction > 0);\r\n      return (dutchAuction.id,dutchAuction.tokenID,dutchAuction.startingTimeAuction,dutchAuction.durationAuction,\r\n              dutchAuction.startPriceAuction,dutchAuction.endPriceAuction,dutchAuction.nftSeller,dutchAuction.finishedAuction);\r\n  }\r\n\r\n    //se ia o licitatie dupa id-ul token-ului\r\n  function getAuctionByTokenID(uint256 _token) public view returns (uint256 id,uint256 tokenID,uint256 startingTimeAuction,\r\n                uint256 durationAuction, uint256 startPriceAuction, uint256 endPriceAuction, address nftSeller,bool finishedAuction) {\r\n      DutchAuction storage dutchAuction = tokenIDAuction[_token];\r\n      require(dutchAuction.startingTimeAuction > 0);\r\n       return (dutchAuction.id,dutchAuction.tokenID,dutchAuction.startingTimeAuction,dutchAuction.durationAuction,\r\n              dutchAuction.startPriceAuction,dutchAuction.endPriceAuction,dutchAuction.nftSeller,dutchAuction.finishedAuction);\r\n  }\r\n\r\n    //se creaza o licitatie, se emite eveniment\r\n  function startAuction(uint256 _tokenID, uint256 _durationAuction, uint256 _startPriceAuction, uint256 _endPriceAuction) public {\r\n      require(_startPriceAuction < 2**256 - 1); \r\n      require(_endPriceAuction < 2**256 - 1); \r\n      require(_durationAuction <= 2**256 - 1); \r\n      require(_durationAuction > 60 seconds);\r\n      require(NftContract.ownerOf(_tokenID) == msg.sender);\r\n\r\n      DutchAuction memory dutchAuction = DutchAuction(uint256(auctionID), uint256(_tokenID), uint256(block.timestamp), uint256(_durationAuction),  \r\n                                        uint256(_startPriceAuction), uint256(_endPriceAuction),  msg.sender,false);\r\n\r\n      tokenIDAuction[_tokenID] = dutchAuction;\r\n      auctionIDAuction[auctionID] = dutchAuction;\r\n\r\n      emit AuctionStarted(uint256(auctionID),uint256(_tokenID),uint256(dutchAuction.durationAuction),uint256(dutchAuction.startPriceAuction),uint256(dutchAuction.endPriceAuction));\r\n      \r\n      auctionID++;\r\n  }\r\n\r\n    //se trimite oferta de cumparare, se emite eveniment\r\n   function buy(uint256 _tokenID) public payable {\r\n      DutchAuction storage dutchAuction = tokenIDAuction[_tokenID];\r\n      DutchAuction storage dutchAuction2 = auctionIDAuction[auctionID];\r\n\r\n      uint256 currentPrice = getPrice(dutchAuction);\r\n\r\n      require(dutchAuction.startingTimeAuction > 0);\r\n      require(msg.value >= currentPrice);\r\n\r\n      address nftseller = dutchAuction.nftSeller;\r\n      address payable sellerPayable = payable(nftseller);\r\n      uint256 idTemp = dutchAuction.id;\r\n\r\n      dutchAuction.finishedAuction = true;\r\n      dutchAuction2.finishedAuction = true;\r\n\r\n      if (currentPrice > 0) {\r\n          uint256 sellerProceeds = currentPrice;\r\n          sellerPayable.transfer(sellerProceeds);\r\n      }\r\n      NftContract.transferFrom(nftseller, msg.sender, _tokenID);\r\n\r\n      emit NFTTransferCompleted(_tokenID, idTemp, currentPrice, msg.sender);\r\n\r\n  }\r\n\r\n    //se ia pretul curent cu id-ul licitatiei\r\n   function getPriceByAuctionId(uint256 _id) public view returns (uint256) {\r\n      DutchAuction storage dutchAuction = auctionIDAuction[_id];\r\n      return getPrice(dutchAuction);\r\n  }\r\n  \r\n    //se ia pretul curent cu id-ul token-ului\r\n  function getPriceByTokenId(uint256 _tokenID) public view returns (uint256) {\r\n      DutchAuction storage dutchAuction = tokenIDAuction[_tokenID];\r\n      return getPrice(dutchAuction);\r\n  }\r\n\r\n    //se ia pretul curent al unei licitatii\r\n  function getPrice(DutchAuction storage _dutchAuction) internal view returns (uint256) {\r\n\r\n      require(_dutchAuction.startingTimeAuction > 0);\r\n\r\n      uint256 timePassed = 0;\r\n      timePassed = block.timestamp - _dutchAuction.startingTimeAuction;\r\n      \r\n      if (timePassed >= _dutchAuction.durationAuction) \r\n      {\r\n          return _dutchAuction.endPriceAuction;\r\n      } \r\n      else \r\n      {\r\n          int256 price = int256(_dutchAuction.endPriceAuction) - int256(_dutchAuction.startPriceAuction);\r\n          int256 temp = price * int256(timePassed) / int256(uint256(_dutchAuction.durationAuction));\r\n          int256 current = int256(_dutchAuction.startPriceAuction) + temp;\r\n          return uint256(current);\r\n      }\r\n  }\r\n\r\n}",
  "sourcePath": "C:/Users/aoana/Desktop/Html/Licenta/contracts/DutchAuction.sol",
  "compiler": {
    "name": "solc",
    "version": "0.8.6+commit.11564f7e.Emscripten.clang"
  },
  "schemaVersion": "3.3.4",
  "updatedAt": "2021-07-13T12:20:04.311Z",
  "devdoc": {
    "kind": "dev",
    "methods": {},
    "version": 1
  },
  "userdoc": {
    "kind": "user",
    "methods": {},
    "version": 1
  }
}