{
  "contractName": "NFToken",
  "abi": [
    {
      "inputs": [],
      "stateMutability": "nonpayable",
      "type": "constructor"
    },
    {
      "anonymous": false,
      "inputs": [
        {
          "indexed": true,
          "internalType": "address",
          "name": "_owner",
          "type": "address"
        },
        {
          "indexed": true,
          "internalType": "address",
          "name": "_approved",
          "type": "address"
        },
        {
          "indexed": true,
          "internalType": "uint256",
          "name": "_tokenId",
          "type": "uint256"
        }
      ],
      "name": "Approval",
      "type": "event"
    },
    {
      "anonymous": false,
      "inputs": [
        {
          "indexed": true,
          "internalType": "address",
          "name": "_owner",
          "type": "address"
        },
        {
          "indexed": true,
          "internalType": "address",
          "name": "_operator",
          "type": "address"
        },
        {
          "indexed": false,
          "internalType": "bool",
          "name": "_approved",
          "type": "bool"
        }
      ],
      "name": "ApprovalForAll",
      "type": "event"
    },
    {
      "anonymous": false,
      "inputs": [
        {
          "indexed": true,
          "internalType": "address",
          "name": "_from",
          "type": "address"
        },
        {
          "indexed": true,
          "internalType": "address",
          "name": "_to",
          "type": "address"
        },
        {
          "indexed": true,
          "internalType": "uint256",
          "name": "_tokenId",
          "type": "uint256"
        }
      ],
      "name": "Transfer",
      "type": "event"
    },
    {
      "inputs": [
        {
          "internalType": "bytes4",
          "name": "_interfaceID",
          "type": "bytes4"
        }
      ],
      "name": "supportsInterface",
      "outputs": [
        {
          "internalType": "bool",
          "name": "",
          "type": "bool"
        }
      ],
      "stateMutability": "view",
      "type": "function"
    },
    {
      "inputs": [
        {
          "internalType": "address",
          "name": "_from",
          "type": "address"
        },
        {
          "internalType": "address",
          "name": "_to",
          "type": "address"
        },
        {
          "internalType": "uint256",
          "name": "_tokenId",
          "type": "uint256"
        }
      ],
      "name": "safeTransferFrom",
      "outputs": [],
      "stateMutability": "nonpayable",
      "type": "function"
    },
    {
      "inputs": [
        {
          "internalType": "address",
          "name": "_from",
          "type": "address"
        },
        {
          "internalType": "address",
          "name": "_to",
          "type": "address"
        },
        {
          "internalType": "uint256",
          "name": "_tokenId",
          "type": "uint256"
        },
        {
          "internalType": "bytes",
          "name": "_data",
          "type": "bytes"
        }
      ],
      "name": "safeTransferFrom",
      "outputs": [],
      "stateMutability": "nonpayable",
      "type": "function"
    },
    {
      "inputs": [
        {
          "internalType": "address",
          "name": "_from",
          "type": "address"
        },
        {
          "internalType": "address",
          "name": "_to",
          "type": "address"
        },
        {
          "internalType": "uint256",
          "name": "_tokenId",
          "type": "uint256"
        }
      ],
      "name": "transferFrom",
      "outputs": [],
      "stateMutability": "nonpayable",
      "type": "function"
    },
    {
      "inputs": [
        {
          "internalType": "address",
          "name": "_approved",
          "type": "address"
        },
        {
          "internalType": "uint256",
          "name": "_tokenId",
          "type": "uint256"
        }
      ],
      "name": "approve",
      "outputs": [],
      "stateMutability": "nonpayable",
      "type": "function"
    },
    {
      "inputs": [
        {
          "internalType": "address",
          "name": "_operator",
          "type": "address"
        },
        {
          "internalType": "bool",
          "name": "_approved",
          "type": "bool"
        }
      ],
      "name": "setApprovalForAll",
      "outputs": [],
      "stateMutability": "nonpayable",
      "type": "function"
    },
    {
      "inputs": [
        {
          "internalType": "address",
          "name": "_owner",
          "type": "address"
        }
      ],
      "name": "balanceOf",
      "outputs": [
        {
          "internalType": "uint256",
          "name": "",
          "type": "uint256"
        }
      ],
      "stateMutability": "view",
      "type": "function"
    },
    {
      "inputs": [
        {
          "internalType": "uint256",
          "name": "_tokenId",
          "type": "uint256"
        }
      ],
      "name": "ownerOf",
      "outputs": [
        {
          "internalType": "address",
          "name": "_owner",
          "type": "address"
        }
      ],
      "stateMutability": "view",
      "type": "function"
    },
    {
      "inputs": [
        {
          "internalType": "uint256",
          "name": "_tokenId",
          "type": "uint256"
        }
      ],
      "name": "getApproved",
      "outputs": [
        {
          "internalType": "address",
          "name": "",
          "type": "address"
        }
      ],
      "stateMutability": "view",
      "type": "function"
    },
    {
      "inputs": [
        {
          "internalType": "address",
          "name": "_owner",
          "type": "address"
        },
        {
          "internalType": "address",
          "name": "_operator",
          "type": "address"
        }
      ],
      "name": "isApprovedForAll",
      "outputs": [
        {
          "internalType": "bool",
          "name": "",
          "type": "bool"
        }
      ],
      "stateMutability": "view",
      "type": "function"
    }
  ],
  "bytecode": "0x608060405234801561001057600080fd5b5060016000806301ffc9a760e01b7bffffffffffffffffffffffffffffffffffffffffffffffffffffffff1916815260200190815260200160002060006101000a81548160ff02191690831515021790555060016000806380ac58cd60e01b7bffffffffffffffffffffffffffffffffffffffffffffffffffffffff1916815260200190815260200160002060006101000a81548160ff021916908315150217905550612159806100c26000396000f3fe608060405234801561001057600080fd5b506004361061009e5760003560e01c80636352211e116100665780636352211e1461015757806370a0823114610187578063a22cb465146101b7578063b88d4fde146101d3578063e985e9c5146101ef5761009e565b806301ffc9a7146100a3578063081812fc146100d3578063095ea7b31461010357806323b872dd1461011f57806342842e0e1461013b575b600080fd5b6100bd60048036038101906100b89190611d20565b61021f565b6040516100ca9190611ead565b60405180910390f35b6100ed60048036038101906100e89190611d7a565b610286565b6040516100fa9190611e46565b60405180910390f35b61011d60048036038101906101189190611ce0565b6103a1565b005b61013960048036038101906101349190611bc5565b610784565b005b61015560048036038101906101509190611bc5565b610bd6565b005b610171600480360381019061016c9190611d7a565b610bf6565b60405161017e9190611e46565b60405180910390f35b6101a1600480360381019061019c9190611b58565b610cdc565b6040516101ae9190611eea565b60405180910390f35b6101d160048036038101906101cc9190611ca0565b610d96565b005b6101ed60048036038101906101e89190611c18565b610e93565b005b61020960048036038101906102049190611b85565b610eea565b6040516102169190611ead565b60405180910390f35b6000806000837bffffffffffffffffffffffffffffffffffffffffffffffffffffffff19167bffffffffffffffffffffffffffffffffffffffffffffffffffffffff1916815260200190815260200160002060009054906101000a900460ff169050919050565b600081600073ffffffffffffffffffffffffffffffffffffffff166001600083815260200190815260200160002060009054906101000a900473ffffffffffffffffffffffffffffffffffffffff1673ffffffffffffffffffffffffffffffffffffffff1614156040518060400160405280600681526020017f303033303032000000000000000000000000000000000000000000000000000081525090610364576040517f08c379a000000000000000000000000000000000000000000000000000000000815260040161035b9190611ec8565b60405180910390fd5b506002600084815260200190815260200160002060009054906101000a900473ffffffffffffffffffffffffffffffffffffffff16915050919050565b8060006001600083815260200190815260200160002060009054906101000a900473ffffffffffffffffffffffffffffffffffffffff1690503373ffffffffffffffffffffffffffffffffffffffff168173ffffffffffffffffffffffffffffffffffffffff16148061049a5750600460008273ffffffffffffffffffffffffffffffffffffffff1673ffffffffffffffffffffffffffffffffffffffff16815260200190815260200160002060003373ffffffffffffffffffffffffffffffffffffffff1673ffffffffffffffffffffffffffffffffffffffff16815260200190815260200160002060009054906101000a900460ff165b6040518060400160405280600681526020017f303033303033000000000000000000000000000000000000000000000000000081525090610511576040517f08c379a00000000000000000000000000000000000000000000000000000000081526004016105089190611ec8565b60405180910390fd5b5082600073ffffffffffffffffffffffffffffffffffffffff166001600083815260200190815260200160002060009054906101000a900473ffffffffffffffffffffffffffffffffffffffff1673ffffffffffffffffffffffffffffffffffffffff1614156040518060400160405280600681526020017f3030333030320000000000000000000000000000000000000000000000000000815250906105ee576040517f08c379a00000000000000000000000000000000000000000000000000000000081526004016105e59190611ec8565b60405180910390fd5b5060006001600086815260200190815260200160002060009054906101000a900473ffffffffffffffffffffffffffffffffffffffff1690508073ffffffffffffffffffffffffffffffffffffffff168673ffffffffffffffffffffffffffffffffffffffff1614156040518060400160405280600681526020017f3030333030380000000000000000000000000000000000000000000000000000815250906106ce576040517f08c379a00000000000000000000000000000000000000000000000000000000081526004016106c59190611ec8565b60405180910390fd5b50856002600087815260200190815260200160002060006101000a81548173ffffffffffffffffffffffffffffffffffffffff021916908373ffffffffffffffffffffffffffffffffffffffff160217905550848673ffffffffffffffffffffffffffffffffffffffff168273ffffffffffffffffffffffffffffffffffffffff167f8c5be1e5ebec7d5bd14f71427d1e84f3dd0314c0f7b2291e5b200ac8c7c3b92560405160405180910390a4505050505050565b8060006001600083815260200190815260200160002060009054906101000a900473ffffffffffffffffffffffffffffffffffffffff1690503373ffffffffffffffffffffffffffffffffffffffff168173ffffffffffffffffffffffffffffffffffffffff16148061085557503373ffffffffffffffffffffffffffffffffffffffff166002600084815260200190815260200160002060009054906101000a900473ffffffffffffffffffffffffffffffffffffffff1673ffffffffffffffffffffffffffffffffffffffff16145b806108e65750600460008273ffffffffffffffffffffffffffffffffffffffff1673ffffffffffffffffffffffffffffffffffffffff16815260200190815260200160002060003373ffffffffffffffffffffffffffffffffffffffff1673ffffffffffffffffffffffffffffffffffffffff16815260200190815260200160002060009054906101000a900460ff165b6040518060400160405280600681526020017f30303330303400000000000000000000000000000000000000000000000000008152509061095d576040517f08c379a00000000000000000000000000000000000000000000000000000000081526004016109549190611ec8565b60405180910390fd5b5082600073ffffffffffffffffffffffffffffffffffffffff166001600083815260200190815260200160002060009054906101000a900473ffffffffffffffffffffffffffffffffffffffff1673ffffffffffffffffffffffffffffffffffffffff1614156040518060400160405280600681526020017f303033303032000000000000000000000000000000000000000000000000000081525090610a3a576040517f08c379a0000000000000000000000000000000000000000000000000000000008152600401610a319190611ec8565b60405180910390fd5b5060006001600086815260200190815260200160002060009054906101000a900473ffffffffffffffffffffffffffffffffffffffff1690508673ffffffffffffffffffffffffffffffffffffffff168173ffffffffffffffffffffffffffffffffffffffff16146040518060400160405280600681526020017f303033303037000000000000000000000000000000000000000000000000000081525090610b19576040517f08c379a0000000000000000000000000000000000000000000000000000000008152600401610b109190611ec8565b60405180910390fd5b50600073ffffffffffffffffffffffffffffffffffffffff168673ffffffffffffffffffffffffffffffffffffffff1614156040518060400160405280600681526020017f303033303031000000000000000000000000000000000000000000000000000081525090610bc2576040517f08c379a0000000000000000000000000000000000000000000000000000000008152600401610bb99190611ec8565b60405180910390fd5b50610bcd8686610f7e565b50505050505050565b610bf183838360405180602001604052806000815250611033565b505050565b60006001600083815260200190815260200160002060009054906101000a900473ffffffffffffffffffffffffffffffffffffffff169050600073ffffffffffffffffffffffffffffffffffffffff168173ffffffffffffffffffffffffffffffffffffffff1614156040518060400160405280600681526020017f303033303032000000000000000000000000000000000000000000000000000081525090610cd6576040517f08c379a0000000000000000000000000000000000000000000000000000000008152600401610ccd9190611ec8565b60405180910390fd5b50919050565b60008073ffffffffffffffffffffffffffffffffffffffff168273ffffffffffffffffffffffffffffffffffffffff1614156040518060400160405280600681526020017f303033303031000000000000000000000000000000000000000000000000000081525090610d85576040517f08c379a0000000000000000000000000000000000000000000000000000000008152600401610d7c9190611ec8565b60405180910390fd5b50610d8f82611601565b9050919050565b80600460003373ffffffffffffffffffffffffffffffffffffffff1673ffffffffffffffffffffffffffffffffffffffff16815260200190815260200160002060008473ffffffffffffffffffffffffffffffffffffffff1673ffffffffffffffffffffffffffffffffffffffff16815260200190815260200160002060006101000a81548160ff0219169083151502179055508173ffffffffffffffffffffffffffffffffffffffff163373ffffffffffffffffffffffffffffffffffffffff167f17307eab39ab6107e8899845ad3d59bd9653f200f220920489ca2b5937696c3183604051610e879190611ead565b60405180910390a35050565b610ee385858585858080601f016020809104026020016040519081016040528093929190818152602001838380828437600081840152601f19601f82011690508083019250505050505050611033565b5050505050565b6000600460008473ffffffffffffffffffffffffffffffffffffffff1673ffffffffffffffffffffffffffffffffffffffff16815260200190815260200160002060008373ffffffffffffffffffffffffffffffffffffffff1673ffffffffffffffffffffffffffffffffffffffff16815260200190815260200160002060009054906101000a900460ff16905092915050565b60006001600083815260200190815260200160002060009054906101000a900473ffffffffffffffffffffffffffffffffffffffff169050610fbf8261164a565b610fc981836116eb565b610fd3838361188e565b818373ffffffffffffffffffffffffffffffffffffffff168273ffffffffffffffffffffffffffffffffffffffff167fddf252ad1be2c89b69c2b068fc378daa952ba7f163c4a11628f55a4df523b3ef60405160405180910390a4505050565b8160006001600083815260200190815260200160002060009054906101000a900473ffffffffffffffffffffffffffffffffffffffff1690503373ffffffffffffffffffffffffffffffffffffffff168173ffffffffffffffffffffffffffffffffffffffff16148061110457503373ffffffffffffffffffffffffffffffffffffffff166002600084815260200190815260200160002060009054906101000a900473ffffffffffffffffffffffffffffffffffffffff1673ffffffffffffffffffffffffffffffffffffffff16145b806111955750600460008273ffffffffffffffffffffffffffffffffffffffff1673ffffffffffffffffffffffffffffffffffffffff16815260200190815260200160002060003373ffffffffffffffffffffffffffffffffffffffff1673ffffffffffffffffffffffffffffffffffffffff16815260200190815260200160002060009054906101000a900460ff165b6040518060400160405280600681526020017f30303330303400000000000000000000000000000000000000000000000000008152509061120c576040517f08c379a00000000000000000000000000000000000000000000000000000000081526004016112039190611ec8565b60405180910390fd5b5083600073ffffffffffffffffffffffffffffffffffffffff166001600083815260200190815260200160002060009054906101000a900473ffffffffffffffffffffffffffffffffffffffff1673ffffffffffffffffffffffffffffffffffffffff1614156040518060400160405280600681526020017f3030333030320000000000000000000000000000000000000000000000000000815250906112e9576040517f08c379a00000000000000000000000000000000000000000000000000000000081526004016112e09190611ec8565b60405180910390fd5b5060006001600087815260200190815260200160002060009054906101000a900473ffffffffffffffffffffffffffffffffffffffff1690508773ffffffffffffffffffffffffffffffffffffffff168173ffffffffffffffffffffffffffffffffffffffff16146040518060400160405280600681526020017f3030333030370000000000000000000000000000000000000000000000000000815250906113c8576040517f08c379a00000000000000000000000000000000000000000000000000000000081526004016113bf9190611ec8565b60405180910390fd5b50600073ffffffffffffffffffffffffffffffffffffffff168773ffffffffffffffffffffffffffffffffffffffff1614156040518060400160405280600681526020017f303033303031000000000000000000000000000000000000000000000000000081525090611471576040517f08c379a00000000000000000000000000000000000000000000000000000000081526004016114689190611ec8565b60405180910390fd5b5061147c8787610f7e565b61149b8773ffffffffffffffffffffffffffffffffffffffff16611a4e565b156115f75760008773ffffffffffffffffffffffffffffffffffffffff1663150b7a02338b8a8a6040518563ffffffff1660e01b81526004016114e19493929190611e61565b602060405180830381600087803b1580156114fb57600080fd5b505af115801561150f573d6000803e3d6000fd5b505050506040513d601f19601f820116820180604052508101906115339190611d4d565b905063150b7a0260e01b7bffffffffffffffffffffffffffffffffffffffffffffffffffffffff1916817bffffffffffffffffffffffffffffffffffffffffffffffffffffffff1916146040518060400160405280600681526020017f3030333030350000000000000000000000000000000000000000000000000000815250906115f4576040517f08c379a00000000000000000000000000000000000000000000000000000000081526004016115eb9190611ec8565b60405180910390fd5b50505b5050505050505050565b6000600360008373ffffffffffffffffffffffffffffffffffffffff1673ffffffffffffffffffffffffffffffffffffffff168152602001908152602001600020549050919050565b600073ffffffffffffffffffffffffffffffffffffffff166002600083815260200190815260200160002060009054906101000a900473ffffffffffffffffffffffffffffffffffffffff1673ffffffffffffffffffffffffffffffffffffffff16146116e8576002600082815260200190815260200160002060006101000a81549073ffffffffffffffffffffffffffffffffffffffff02191690555b50565b8173ffffffffffffffffffffffffffffffffffffffff166001600083815260200190815260200160002060009054906101000a900473ffffffffffffffffffffffffffffffffffffffff1673ffffffffffffffffffffffffffffffffffffffff16146040518060400160405280600681526020017f3030333030370000000000000000000000000000000000000000000000000000815250906117c4576040517f08c379a00000000000000000000000000000000000000000000000000000000081526004016117bb9190611ec8565b60405180910390fd5b506001600360008473ffffffffffffffffffffffffffffffffffffffff1673ffffffffffffffffffffffffffffffffffffffff168152602001908152602001600020546118119190611f93565b600360008473ffffffffffffffffffffffffffffffffffffffff1673ffffffffffffffffffffffffffffffffffffffff168152602001908152602001600020819055506001600082815260200190815260200160002060006101000a81549073ffffffffffffffffffffffffffffffffffffffff02191690555050565b600073ffffffffffffffffffffffffffffffffffffffff166001600083815260200190815260200160002060009054906101000a900473ffffffffffffffffffffffffffffffffffffffff1673ffffffffffffffffffffffffffffffffffffffff16146040518060400160405280600681526020017f303033303036000000000000000000000000000000000000000000000000000081525090611968576040517f08c379a000000000000000000000000000000000000000000000000000000000815260040161195f9190611ec8565b60405180910390fd5b50816001600083815260200190815260200160002060006101000a81548173ffffffffffffffffffffffffffffffffffffffff021916908373ffffffffffffffffffffffffffffffffffffffff1602179055506001600360008473ffffffffffffffffffffffffffffffffffffffff1673ffffffffffffffffffffffffffffffffffffffff16815260200190815260200160002054611a079190611f3d565b600360008473ffffffffffffffffffffffffffffffffffffffff1673ffffffffffffffffffffffffffffffffffffffff168152602001908152602001600020819055505050565b60008060007fc5d2460186f7233c927e7db2dcc703c0e500b653ca82273b7bfad8045d85a47060001b9050833f91506000801b8214158015611a905750808214155b92505050919050565b600081359050611aa8816120c7565b92915050565b600081359050611abd816120de565b92915050565b600081359050611ad2816120f5565b92915050565b600081519050611ae7816120f5565b92915050565b60008083601f840112611b0357611b026120a2565b5b8235905067ffffffffffffffff811115611b2057611b1f61209d565b5b602083019150836001820283011115611b3c57611b3b6120a7565b5b9250929050565b600081359050611b528161210c565b92915050565b600060208284031215611b6e57611b6d6120b1565b5b6000611b7c84828501611a99565b91505092915050565b60008060408385031215611b9c57611b9b6120b1565b5b6000611baa85828601611a99565b9250506020611bbb85828601611a99565b9150509250929050565b600080600060608486031215611bde57611bdd6120b1565b5b6000611bec86828701611a99565b9350506020611bfd86828701611a99565b9250506040611c0e86828701611b43565b9150509250925092565b600080600080600060808688031215611c3457611c336120b1565b5b6000611c4288828901611a99565b9550506020611c5388828901611a99565b9450506040611c6488828901611b43565b935050606086013567ffffffffffffffff811115611c8557611c846120ac565b5b611c9188828901611aed565b92509250509295509295909350565b60008060408385031215611cb757611cb66120b1565b5b6000611cc585828601611a99565b9250506020611cd685828601611aae565b9150509250929050565b60008060408385031215611cf757611cf66120b1565b5b6000611d0585828601611a99565b9250506020611d1685828601611b43565b9150509250929050565b600060208284031215611d3657611d356120b1565b5b6000611d4484828501611ac3565b91505092915050565b600060208284031215611d6357611d626120b1565b5b6000611d7184828501611ad8565b91505092915050565b600060208284031215611d9057611d8f6120b1565b5b6000611d9e84828501611b43565b91505092915050565b611db081611fc7565b82525050565b611dbf81611fd9565b82525050565b6000611dd082611f05565b611dda8185611f1b565b9350611dea81856020860161203b565b611df3816120b6565b840191505092915050565b6000611e0982611f10565b611e138185611f2c565b9350611e2381856020860161203b565b611e2c816120b6565b840191505092915050565b611e4081612031565b82525050565b6000602082019050611e5b6000830184611da7565b92915050565b6000608082019050611e766000830187611da7565b611e836020830186611da7565b611e906040830185611e37565b8181036060830152611ea28184611dc5565b905095945050505050565b6000602082019050611ec26000830184611db6565b92915050565b60006020820190508181036000830152611ee28184611dfe565b905092915050565b6000602082019050611eff6000830184611e37565b92915050565b600081519050919050565b600081519050919050565b600082825260208201905092915050565b600082825260208201905092915050565b6000611f4882612031565b9150611f5383612031565b9250827fffffffffffffffffffffffffffffffffffffffffffffffffffffffffffffffff03821115611f8857611f8761206e565b5b828201905092915050565b6000611f9e82612031565b9150611fa983612031565b925082821015611fbc57611fbb61206e565b5b828203905092915050565b6000611fd282612011565b9050919050565b60008115159050919050565b60007fffffffff0000000000000000000000000000000000000000000000000000000082169050919050565b600073ffffffffffffffffffffffffffffffffffffffff82169050919050565b6000819050919050565b60005b8381101561205957808201518184015260208101905061203e565b83811115612068576000848401525b50505050565b7f4e487b7100000000000000000000000000000000000000000000000000000000600052601160045260246000fd5b600080fd5b600080fd5b600080fd5b600080fd5b600080fd5b6000601f19601f8301169050919050565b6120d081611fc7565b81146120db57600080fd5b50565b6120e781611fd9565b81146120f257600080fd5b50565b6120fe81611fe5565b811461210957600080fd5b50565b61211581612031565b811461212057600080fd5b5056fea264697066735822122016c25bf518b935be8cb201ab09c78232b4c417691042a24955d4c37f3060dac464736f6c63430008060033",
  "immutableReferences": {},
  "source": "// SPDX-License-Identifier: MIT\r\npragma solidity 0.8.6;\r\n\r\nimport \"./erc721.sol\";\r\nimport \"./erc721-token-receiver.sol\";\r\nimport \"../utils/supports-interface.sol\";\r\nimport \"../utils/address-utils.sol\";\r\n\r\n/**\r\n * @dev Implementation of ERC-721 non-fungible token standard.\r\n */\r\ncontract NFToken is\r\n  ERC721,\r\n  SupportsInterface\r\n{\r\n  using AddressUtils for address;\r\n\r\n  /**\r\n   * @dev List of revert message codes. Implementing dApp should handle showing the correct message.\r\n   * Based on 0xcert framework error codes.\r\n   */\r\n  string constant ZERO_ADDRESS = \"003001\";\r\n  string constant NOT_VALID_NFT = \"003002\";\r\n  string constant NOT_OWNER_OR_OPERATOR = \"003003\";\r\n  string constant NOT_OWNER_APPROVED_OR_OPERATOR = \"003004\";\r\n  string constant NOT_ABLE_TO_RECEIVE_NFT = \"003005\";\r\n  string constant NFT_ALREADY_EXISTS = \"003006\";\r\n  string constant NOT_OWNER = \"003007\";\r\n  string constant IS_OWNER = \"003008\";\r\n\r\n  /**\r\n   * @dev Magic value of a smart contract that can receive NFT.\r\n   * Equal to: bytes4(keccak256(\"onERC721Received(address,address,uint256,bytes)\")).\r\n   */\r\n  bytes4 internal constant MAGIC_ON_ERC721_RECEIVED = 0x150b7a02;\r\n\r\n  /**\r\n   * @dev A mapping from NFT ID to the address that owns it.\r\n   */\r\n  mapping (uint256 => address) internal idToOwner;\r\n\r\n  /**\r\n   * @dev Mapping from NFT ID to approved address.\r\n   */\r\n  mapping (uint256 => address) internal idToApproval;\r\n\r\n   /**\r\n   * @dev Mapping from owner address to count of his tokens.\r\n   */\r\n  mapping (address => uint256) private ownerToNFTokenCount;\r\n\r\n  /**\r\n   * @dev Mapping from owner address to mapping of operator addresses.\r\n   */\r\n  mapping (address => mapping (address => bool)) internal ownerToOperators;\r\n\r\n  /**\r\n   * @dev Guarantees that the msg.sender is an owner or operator of the given NFT.\r\n   * @param _tokenId ID of the NFT to validate.\r\n   */\r\n  modifier canOperate(\r\n    uint256 _tokenId\r\n  )\r\n  {\r\n    address tokenOwner = idToOwner[_tokenId];\r\n    require(\r\n      tokenOwner == msg.sender || ownerToOperators[tokenOwner][msg.sender],\r\n      NOT_OWNER_OR_OPERATOR\r\n    );\r\n    _;\r\n  }\r\n\r\n  /**\r\n   * @dev Guarantees that the msg.sender is allowed to transfer NFT.\r\n   * @param _tokenId ID of the NFT to transfer.\r\n   */\r\n  modifier canTransfer(\r\n    uint256 _tokenId\r\n  )\r\n  {\r\n    address tokenOwner = idToOwner[_tokenId];\r\n    require(\r\n      tokenOwner == msg.sender\r\n      || idToApproval[_tokenId] == msg.sender\r\n      || ownerToOperators[tokenOwner][msg.sender],\r\n      NOT_OWNER_APPROVED_OR_OPERATOR\r\n    );\r\n    _;\r\n  }\r\n\r\n  /**\r\n   * @dev Guarantees that _tokenId is a valid Token.\r\n   * @param _tokenId ID of the NFT to validate.\r\n   */\r\n  modifier validNFToken(\r\n    uint256 _tokenId\r\n  )\r\n  {\r\n    require(idToOwner[_tokenId] != address(0), NOT_VALID_NFT);\r\n    _;\r\n  }\r\n\r\n  /**\r\n   * @dev Contract constructor.\r\n   */\r\n  constructor()\r\n  {\r\n    supportedInterfaces[0x80ac58cd] = true; // ERC721\r\n  }\r\n\r\n  /**\r\n   * @dev Transfers the ownership of an NFT from one address to another address. This function can\r\n   * be changed to payable.\r\n   * @notice Throws unless `msg.sender` is the current owner, an authorized operator, or the\r\n   * approved address for this NFT. Throws if `_from` is not the current owner. Throws if `_to` is\r\n   * the zero address. Throws if `_tokenId` is not a valid NFT. When transfer is complete, this\r\n   * function checks if `_to` is a smart contract (code size > 0). If so, it calls\r\n   * `onERC721Received` on `_to` and throws if the return value is not\r\n   * `bytes4(keccak256(\"onERC721Received(address,uint256,bytes)\"))`.\r\n   * @param _from The current owner of the NFT.\r\n   * @param _to The new owner.\r\n   * @param _tokenId The NFT to transfer.\r\n   * @param _data Additional data with no specified format, sent in call to `_to`.\r\n   */\r\n  function safeTransferFrom(\r\n    address _from,\r\n    address _to,\r\n    uint256 _tokenId,\r\n    bytes calldata _data\r\n  )\r\n    external\r\n    override\r\n  {\r\n    _safeTransferFrom(_from, _to, _tokenId, _data);\r\n  }\r\n\r\n  /**\r\n   * @dev Transfers the ownership of an NFT from one address to another address. This function can\r\n   * be changed to payable.\r\n   * @notice This works identically to the other function with an extra data parameter, except this\r\n   * function just sets data to \"\"\r\n   * @param _from The current owner of the NFT.\r\n   * @param _to The new owner.\r\n   * @param _tokenId The NFT to transfer.\r\n   */\r\n  function safeTransferFrom(\r\n    address _from,\r\n    address _to,\r\n    uint256 _tokenId\r\n  )\r\n    external\r\n    override\r\n  {\r\n    _safeTransferFrom(_from, _to, _tokenId, \"\");\r\n  }\r\n\r\n  /**\r\n   * @dev Throws unless `msg.sender` is the current owner, an authorized operator, or the approved\r\n   * address for this NFT. Throws if `_from` is not the current owner. Throws if `_to` is the zero\r\n   * address. Throws if `_tokenId` is not a valid NFT. This function can be changed to payable.\r\n   * @notice The caller is responsible to confirm that `_to` is capable of receiving NFTs or else\r\n   * they may be permanently lost.\r\n   * @param _from The current owner of the NFT.\r\n   * @param _to The new owner.\r\n   * @param _tokenId The NFT to transfer.\r\n   */\r\n  function transferFrom(\r\n    address _from,\r\n    address _to,\r\n    uint256 _tokenId\r\n  )\r\n    external\r\n    override\r\n    canTransfer(_tokenId)\r\n    validNFToken(_tokenId)\r\n  {\r\n    address tokenOwner = idToOwner[_tokenId];\r\n    require(tokenOwner == _from, NOT_OWNER);\r\n    require(_to != address(0), ZERO_ADDRESS);\r\n\r\n    _transfer(_to, _tokenId);\r\n  }\r\n\r\n  /**\r\n   * @dev Set or reaffirm the approved address for an NFT. This function can be changed to payable.\r\n   * @notice The zero address indicates there is no approved address. Throws unless `msg.sender` is\r\n   * the current NFT owner, or an authorized operator of the current owner.\r\n   * @param _approved Address to be approved for the given NFT ID.\r\n   * @param _tokenId ID of the token to be approved.\r\n   */\r\n  function approve(\r\n    address _approved,\r\n    uint256 _tokenId\r\n  )\r\n    external\r\n    override\r\n    canOperate(_tokenId)\r\n    validNFToken(_tokenId)\r\n  {\r\n    address tokenOwner = idToOwner[_tokenId];\r\n    require(_approved != tokenOwner, IS_OWNER);\r\n\r\n    idToApproval[_tokenId] = _approved;\r\n    emit Approval(tokenOwner, _approved, _tokenId);\r\n  }\r\n\r\n  /**\r\n   * @dev Enables or disables approval for a third party (\"operator\") to manage all of\r\n   * `msg.sender`'s assets. It also emits the ApprovalForAll event.\r\n   * @notice This works even if sender doesn't own any tokens at the time.\r\n   * @param _operator Address to add to the set of authorized operators.\r\n   * @param _approved True if the operators is approved, false to revoke approval.\r\n   */\r\n  function setApprovalForAll(\r\n    address _operator,\r\n    bool _approved\r\n  )\r\n    external\r\n    override\r\n  {\r\n    ownerToOperators[msg.sender][_operator] = _approved;\r\n    emit ApprovalForAll(msg.sender, _operator, _approved);\r\n  }\r\n\r\n  /**\r\n   * @dev Returns the number of NFTs owned by `_owner`. NFTs assigned to the zero address are\r\n   * considered invalid, and this function throws for queries about the zero address.\r\n   * @param _owner Address for whom to query the balance.\r\n   * @return Balance of _owner.\r\n   */\r\n  function balanceOf(\r\n    address _owner\r\n  )\r\n    external\r\n    override\r\n    view\r\n    returns (uint256)\r\n  {\r\n    require(_owner != address(0), ZERO_ADDRESS);\r\n    return _getOwnerNFTCount(_owner);\r\n  }\r\n\r\n  /**\r\n   * @dev Returns the address of the owner of the NFT. NFTs assigned to the zero address are\r\n   * considered invalid, and queries about them do throw.\r\n   * @param _tokenId The identifier for an NFT.\r\n   * @return _owner Address of _tokenId owner.\r\n   */\r\n  function ownerOf(\r\n    uint256 _tokenId\r\n  )\r\n    external\r\n    override\r\n    view\r\n    returns (address _owner)\r\n  {\r\n    _owner = idToOwner[_tokenId];\r\n    require(_owner != address(0), NOT_VALID_NFT);\r\n  }\r\n\r\n  /**\r\n   * @dev Get the approved address for a single NFT.\r\n   * @notice Throws if `_tokenId` is not a valid NFT.\r\n   * @param _tokenId ID of the NFT to query the approval of.\r\n   * @return Address that _tokenId is approved for.\r\n   */\r\n  function getApproved(\r\n    uint256 _tokenId\r\n  )\r\n    external\r\n    override\r\n    view\r\n    validNFToken(_tokenId)\r\n    returns (address)\r\n  {\r\n    return idToApproval[_tokenId];\r\n  }\r\n\r\n  /**\r\n   * @dev Checks if `_operator` is an approved operator for `_owner`.\r\n   * @param _owner The address that owns the NFTs.\r\n   * @param _operator The address that acts on behalf of the owner.\r\n   * @return True if approved for all, false otherwise.\r\n   */\r\n  function isApprovedForAll(\r\n    address _owner,\r\n    address _operator\r\n  )\r\n    external\r\n    override\r\n    view\r\n    returns (bool)\r\n  {\r\n    return ownerToOperators[_owner][_operator];\r\n  }\r\n\r\n  /**\r\n   * @dev Actually performs the transfer.\r\n   * @notice Does NO checks.\r\n   * @param _to Address of a new owner.\r\n   * @param _tokenId The NFT that is being transferred.\r\n   */\r\n  function _transfer(\r\n    address _to,\r\n    uint256 _tokenId\r\n  )\r\n    internal\r\n  {\r\n    address from = idToOwner[_tokenId];\r\n    _clearApproval(_tokenId);\r\n\r\n    _removeNFToken(from, _tokenId);\r\n    _addNFToken(_to, _tokenId);\r\n\r\n    emit Transfer(from, _to, _tokenId);\r\n  }\r\n\r\n  /**\r\n   * @dev Mints a new NFT.\r\n   * @notice This is an internal function which should be called from user-implemented external\r\n   * mint function. Its purpose is to show and properly initialize data structures when using this\r\n   * implementation.\r\n   * @param _to The address that will own the minted NFT.\r\n   * @param _tokenId of the NFT to be minted by the msg.sender.\r\n   */\r\n  function _mint(\r\n    address _to,\r\n    uint256 _tokenId\r\n  )\r\n    internal\r\n    virtual\r\n  {\r\n    require(_to != address(0), ZERO_ADDRESS);\r\n    require(idToOwner[_tokenId] == address(0), NFT_ALREADY_EXISTS);\r\n\r\n    _addNFToken(_to, _tokenId);\r\n\r\n    emit Transfer(address(0), _to, _tokenId);\r\n  }\r\n\r\n  /**\r\n   * @dev Burns a NFT.\r\n   * @notice This is an internal function which should be called from user-implemented external burn\r\n   * function. Its purpose is to show and properly initialize data structures when using this\r\n   * implementation. Also, note that this burn implementation allows the minter to re-mint a burned\r\n   * NFT.\r\n   * @param _tokenId ID of the NFT to be burned.\r\n   */\r\n  function _burn(\r\n    uint256 _tokenId\r\n  )\r\n    internal\r\n    virtual\r\n    validNFToken(_tokenId)\r\n  {\r\n    address tokenOwner = idToOwner[_tokenId];\r\n    _clearApproval(_tokenId);\r\n    _removeNFToken(tokenOwner, _tokenId);\r\n    emit Transfer(tokenOwner, address(0), _tokenId);\r\n  }\r\n\r\n  /**\r\n   * @dev Removes a NFT from owner.\r\n   * @notice Use and override this function with caution. Wrong usage can have serious consequences.\r\n   * @param _from Address from which we want to remove the NFT.\r\n   * @param _tokenId Which NFT we want to remove.\r\n   */\r\n  function _removeNFToken(\r\n    address _from,\r\n    uint256 _tokenId\r\n  )\r\n    internal\r\n    virtual\r\n  {\r\n    require(idToOwner[_tokenId] == _from, NOT_OWNER);\r\n    ownerToNFTokenCount[_from] = ownerToNFTokenCount[_from] - 1;\r\n    delete idToOwner[_tokenId];\r\n  }\r\n\r\n  /**\r\n   * @dev Assigns a new NFT to owner.\r\n   * @notice Use and override this function with caution. Wrong usage can have serious consequences.\r\n   * @param _to Address to which we want to add the NFT.\r\n   * @param _tokenId Which NFT we want to add.\r\n   */\r\n  function _addNFToken(\r\n    address _to,\r\n    uint256 _tokenId\r\n  )\r\n    internal\r\n    virtual\r\n  {\r\n    require(idToOwner[_tokenId] == address(0), NFT_ALREADY_EXISTS);\r\n\r\n    idToOwner[_tokenId] = _to;\r\n    ownerToNFTokenCount[_to] = ownerToNFTokenCount[_to] + 1;\r\n  }\r\n\r\n  /**\r\n   *@dev Helper function that gets NFT count of owner. This is needed for overriding in enumerable\r\n   * extension to remove double storage (gas optimization) of owner NFT count.\r\n   * @param _owner Address for whom to query the count.\r\n   * @return Number of _owner NFTs.\r\n   */\r\n  function _getOwnerNFTCount(\r\n    address _owner\r\n  )\r\n    internal\r\n    virtual\r\n    view\r\n    returns (uint256)\r\n  {\r\n    return ownerToNFTokenCount[_owner];\r\n  }\r\n\r\n  /**\r\n   * @dev Actually perform the safeTransferFrom.\r\n   * @param _from The current owner of the NFT.\r\n   * @param _to The new owner.\r\n   * @param _tokenId The NFT to transfer.\r\n   * @param _data Additional data with no specified format, sent in call to `_to`.\r\n   */\r\n  function _safeTransferFrom(\r\n    address _from,\r\n    address _to,\r\n    uint256 _tokenId,\r\n    bytes memory _data\r\n  )\r\n    private\r\n    canTransfer(_tokenId)\r\n    validNFToken(_tokenId)\r\n  {\r\n    address tokenOwner = idToOwner[_tokenId];\r\n    require(tokenOwner == _from, NOT_OWNER);\r\n    require(_to != address(0), ZERO_ADDRESS);\r\n\r\n    _transfer(_to, _tokenId);\r\n\r\n    if (_to.isContract())\r\n    {\r\n      bytes4 retval = ERC721TokenReceiver(_to).onERC721Received(msg.sender, _from, _tokenId, _data);\r\n      require(retval == MAGIC_ON_ERC721_RECEIVED, NOT_ABLE_TO_RECEIVE_NFT);\r\n    }\r\n  }\r\n\r\n  /**\r\n   * @dev Clears the current approval of a given NFT ID.\r\n   * @param _tokenId ID of the NFT to be transferred.\r\n   */\r\n  function _clearApproval(\r\n    uint256 _tokenId\r\n  )\r\n    private\r\n  {\r\n    if (idToApproval[_tokenId] != address(0))\r\n    {\r\n      delete idToApproval[_tokenId];\r\n    }\r\n  }\r\n\r\n}\r\n",
  "sourcePath": "C:\\Users\\aoana\\Desktop\\Html\\Licenta\\contracts\\tokens\\nf-token.sol",
  "compiler": {
    "name": "solc",
    "version": "0.8.6+commit.11564f7e.Emscripten.clang"
  },
  "schemaVersion": "3.3.4",
  "updatedAt": "2021-07-13T12:20:04.386Z",
  "devdoc": {
    "details": "Implementation of ERC-721 non-fungible token standard.",
    "kind": "dev",
    "methods": {
      "approve(address,uint256)": {
        "details": "Set or reaffirm the approved address for an NFT. This function can be changed to payable.",
        "params": {
          "_approved": "Address to be approved for the given NFT ID.",
          "_tokenId": "ID of the token to be approved."
        }
      },
      "balanceOf(address)": {
        "details": "Returns the number of NFTs owned by `_owner`. NFTs assigned to the zero address are considered invalid, and this function throws for queries about the zero address.",
        "params": {
          "_owner": "Address for whom to query the balance."
        },
        "returns": {
          "_0": "Balance of _owner."
        }
      },
      "constructor": {
        "details": "Contract constructor."
      },
      "getApproved(uint256)": {
        "details": "Get the approved address for a single NFT.",
        "params": {
          "_tokenId": "ID of the NFT to query the approval of."
        },
        "returns": {
          "_0": "Address that _tokenId is approved for."
        }
      },
      "isApprovedForAll(address,address)": {
        "details": "Checks if `_operator` is an approved operator for `_owner`.",
        "params": {
          "_operator": "The address that acts on behalf of the owner.",
          "_owner": "The address that owns the NFTs."
        },
        "returns": {
          "_0": "True if approved for all, false otherwise."
        }
      },
      "ownerOf(uint256)": {
        "details": "Returns the address of the owner of the NFT. NFTs assigned to the zero address are considered invalid, and queries about them do throw.",
        "params": {
          "_tokenId": "The identifier for an NFT."
        },
        "returns": {
          "_owner": "Address of _tokenId owner."
        }
      },
      "safeTransferFrom(address,address,uint256)": {
        "details": "Transfers the ownership of an NFT from one address to another address. This function can be changed to payable.",
        "params": {
          "_from": "The current owner of the NFT.",
          "_to": "The new owner.",
          "_tokenId": "The NFT to transfer."
        }
      },
      "safeTransferFrom(address,address,uint256,bytes)": {
        "details": "Transfers the ownership of an NFT from one address to another address. This function can be changed to payable.",
        "params": {
          "_data": "Additional data with no specified format, sent in call to `_to`.",
          "_from": "The current owner of the NFT.",
          "_to": "The new owner.",
          "_tokenId": "The NFT to transfer."
        }
      },
      "setApprovalForAll(address,bool)": {
        "details": "Enables or disables approval for a third party (\"operator\") to manage all of `msg.sender`'s assets. It also emits the ApprovalForAll event.",
        "params": {
          "_approved": "True if the operators is approved, false to revoke approval.",
          "_operator": "Address to add to the set of authorized operators."
        }
      },
      "supportsInterface(bytes4)": {
        "details": "Function to check which interfaces are suported by this contract.",
        "params": {
          "_interfaceID": "Id of the interface."
        },
        "returns": {
          "_0": "True if _interfaceID is supported, false otherwise."
        }
      },
      "transferFrom(address,address,uint256)": {
        "details": "Throws unless `msg.sender` is the current owner, an authorized operator, or the approved address for this NFT. Throws if `_from` is not the current owner. Throws if `_to` is the zero address. Throws if `_tokenId` is not a valid NFT. This function can be changed to payable.",
        "params": {
          "_from": "The current owner of the NFT.",
          "_to": "The new owner.",
          "_tokenId": "The NFT to transfer."
        }
      }
    },
    "stateVariables": {
      "MAGIC_ON_ERC721_RECEIVED": {
        "details": "Magic value of a smart contract that can receive NFT. Equal to: bytes4(keccak256(\"onERC721Received(address,address,uint256,bytes)\"))."
      },
      "ZERO_ADDRESS": {
        "details": "List of revert message codes. Implementing dApp should handle showing the correct message. Based on 0xcert framework error codes."
      },
      "idToApproval": {
        "details": "Mapping from NFT ID to approved address."
      },
      "idToOwner": {
        "details": "A mapping from NFT ID to the address that owns it."
      },
      "ownerToNFTokenCount": {
        "details": "Mapping from owner address to count of his tokens."
      },
      "ownerToOperators": {
        "details": "Mapping from owner address to mapping of operator addresses."
      }
    },
    "version": 1
  },
  "userdoc": {
    "kind": "user",
    "methods": {
      "approve(address,uint256)": {
        "notice": "The zero address indicates there is no approved address. Throws unless `msg.sender` is the current NFT owner, or an authorized operator of the current owner."
      },
      "getApproved(uint256)": {
        "notice": "Throws if `_tokenId` is not a valid NFT."
      },
      "safeTransferFrom(address,address,uint256)": {
        "notice": "This works identically to the other function with an extra data parameter, except this function just sets data to \"\""
      },
      "safeTransferFrom(address,address,uint256,bytes)": {
        "notice": "Throws unless `msg.sender` is the current owner, an authorized operator, or the approved address for this NFT. Throws if `_from` is not the current owner. Throws if `_to` is the zero address. Throws if `_tokenId` is not a valid NFT. When transfer is complete, this function checks if `_to` is a smart contract (code size > 0). If so, it calls `onERC721Received` on `_to` and throws if the return value is not `bytes4(keccak256(\"onERC721Received(address,uint256,bytes)\"))`."
      },
      "setApprovalForAll(address,bool)": {
        "notice": "This works even if sender doesn't own any tokens at the time."
      },
      "transferFrom(address,address,uint256)": {
        "notice": "The caller is responsible to confirm that `_to` is capable of receiving NFTs or else they may be permanently lost."
      }
    },
    "version": 1
  }
}